{
    "contractName": "HelloWorld",
    "abi": [
        {
            "inputs": [],
            "name": "getHelloMessage",
            "outputs": [
                {
                    "internalType": "string",
                    "name": "",
                    "type": "string"
                }
            ],
            "stateMutability": "view",
            "type": "function"
        }
    ],
    "bytecode": "60c0604052600b60808190526a12195b1b1bc81ddbdc9b1960aa1b60a090815261002c916000919061003f565b5034801561003957600080fd5b50610113565b82805461004b906100d8565b90600052602060002090601f01602090048101928261006d57600085556100b3565b82601f1061008657805160ff19168380011785556100b3565b828001600101855582156100b3579182015b828111156100b3578251825591602001919060010190610098565b506100bf9291506100c3565b5090565b5b808211156100bf57600081556001016100c4565b600181811c908216806100ec57607f821691505b6020821081141561010d57634e487b7160e01b600052602260045260246000fd5b50919050565b6101a6806101226000396000f3fe608060405234801561001057600080fd5b506004361061002b5760003560e01c80633493b37c14610030575b600080fd5b61003861004e565b60405161004591906100e0565b60405180910390f35b60606000805461005d90610135565b80601f016020809104026020016040519081016040528092919081815260200182805461008990610135565b80156100d65780601f106100ab576101008083540402835291602001916100d6565b820191906000526020600020905b8154815290600101906020018083116100b957829003601f168201915b5050505050905090565b600060208083528351808285015260005b8181101561010d578581018301518582016040015282016100f1565b8181111561011f576000604083870101525b50601f01601f1916929092016040019392505050565b600181811c9082168061014957607f821691505b6020821081141561016a57634e487b7160e01b600052602260045260246000fd5b5091905056fea2646970667358221220859b5e2109c9dc5c8d7665f861c1c3dc9b9a3ce216bcee1bb607aa2666355db264736f6c634300080a0033",
    "sourcePath": "c:/Users/Rotich Jacob/Documents/Ex_Files_Building_Ethereum_Blockchain_App_6/Ex_Files_Building_Ethereum_Blockchain_App_6/Exercise Files/sourceCode/firstProject/contracts/HelloWorld.sol",
    "compiler": {
        "name": "solc",
        "version": "0.8.10+commit.fc410830"
    },
    "functionHashes": {
        "getHelloMessage()": "3493b37c"
    },
    "gasEstimates": {
        "creation": {
            "codeDepositCost": "84400",
            "executionCost": "infinite",
            "totalCost": "infinite"
        },
        "external": {
            "getHelloMessage()": "infinite"
        }
    }
}